:100000000C9434000C9451000C9451000C94510049
:100010000C9451000C9451000C9451000C9451001C
:100020000C9451000C944A010C9451000C94510012
:100030000C9451000C94FA010C9451000C94510052
:100040000C9451000C9451000C9451000C945100EC
:100050000C94D3010C94B2000C9451000C945100F8
:100060000C9451000C94510011241FBECFEFD8E026
:10007000DEBFCDBF11E0A0E0B1E0E8E2F4E002C0F5
:1000800005900D92AE30B107D9F711E0AEE0B1E0C6
:1000900001C01D92A739B107E1F70E9453000C94EB
:1000A00012020C9400000E9474000E9477000E94CB
:1000B00072000E9482000E9427010E9429010E9472
:1000C000640182E00E9497000E947A000E94AC00C6
:1000D0000E9441010E94AF00682F80E091E00E94E1
:1000E0009901F2CF209A089553985B9A08955498F5
:1000F0005C9A08954B9904C04C9902C0289A0895BF
:1001000028980895ECE7F0E0808180648083EAE736
:10011000F0E0808187688083808188608083789424
:10012000089590E0883008F491E0892F0895982F81
:1001300080917C00887F80937C00983060F490935D
:10014000100180917C00892B80937C0080917A0043
:10015000806480937A00089580910E0108958091C3
:100160000F0108951F920F920FB60F9211242F9333
:100170003F934F935F936F937F938F939F93AF932F
:10018000BF93EF93FF9380917800909179008091D5
:10019000780090917900893C910528F483E380935D
:1001A0000E0180E212C08091780090917900823D2A
:1001B000910570F08091780090917900855F914071
:1001C00038F486E680930E0185E280930F012AC001
:1001D00080917800909179008E5F914060F08091DD
:1001E0007800909179008D5B924028F483EB8093A6
:1001F0000E0189E2EACF8091780090917900865CC7
:10020000924060F080917800909179008150944004
:1002100028F482EF80930E0183E3D7CF10920E0172
:1002200010920F01809110010E949700FF91EF91B1
:10023000BF91AF919F918F917F916F915F914F91FE
:100240003F912F910F900FBE0F901F901895569AC7
:10025000089584B5806884BD84B5836084BD85B508
:10026000836085BD16BCE1EBF0E080818760808310
:10027000E0E7F0E08081816080831092B2007894A2
:100280000895982F80911201813019F497BD109232
:10029000120108951F920F920FB60F9211248F939F
:1002A000809111018F5F80931101809111018C3039
:1002B00028F081E080931201109211018F910F902C
:1002C0000FBE0F901F9018951092C50087E680937F
:1002D000C400E1ECF0E080818860808380818064EC
:1002E0008083E2ECF0E08081866080837894E1E8AE
:1002F000F0E0808181608083EFE6F0E080818160C2
:1003000080831092850010928400789408958093E1
:10031000C600089590911401E92FF0E0E95EFE4FC8
:1003200080839F5F9093140197FF02C01092140185
:1003300008959C01809116018130A1F540E001C033
:100340004F5FF901E40FF11D80818823C9F7D901BE
:1003500020E011C080911401E82FF0E0E95EFE4F2B
:100360009C9190838F5F8093140187FF02C010924D
:1003700014012F5F1196241768F38091C00085FF48
:1003800002C01092C600862F8F70805D62956F70DC
:10039000605D6093C6008093C6008AE08093C600CB
:1003A0001092160108951F920F920FB60F9211240A
:1003B0008F939F93EF93FF9390911301809114017A
:1003C000981779F0E92FF0E0E95EFE4F8081809385
:1003D000C600892F8F5F8093130187FF02C01092A0
:1003E0001301FF91EF919F918F910F900FBE0F908E
:1003F0001F9018951F920F920FB60F9211248F9392
:10040000809115018F5F80931501843F28F081E072
:1004100080931601109215018F910F900FBE0F90CF
:080420001F901895F894FFCF1E
:0E04280074656D70657261747572653D0000DB
:00000001FF
